:020000040800F2
:10000000A0450020392F00081D0300081F03000829
:1000100023030008270300082B030008000000004A
:1000200000000000000000000000000001010008C6
:10003000310300080000000035010008933100087A
:10004000532F0008532F0008532F0008AD0200085B
:10005000532F0008532F0008532F0008532F000878
:10006000532F0008532F0008532F0008FB010008EE
:10007000532F0008532F0008532F0008532F000858
:10008000532F0008532F0008532F0008532F000848
:10009000532F0008532F0008532F0008532F000838
:1000A000532F0008532F0008532F0008532F000828
:1000B000532F0008532F0008532F0008532F000818
:1000C000532F0008532F0008532F0008532F000808
:1000D000532F0008532F0008532F0008532F0008F8
:1000E000532F0008CF020008532F0008DFF80CD070
:1000F00004F0A4F800480047A1010008A045002032
:100100001A4B19680868B0E8F00F80F309884FF0BF
:10011000000080F311884EF00D0E704700000000C3
:1001200003480068006880F3088862B600DF00BFFB
:1001300008ED00E0EFF309800C4B1A6820E9F00F9E
:10014000106008B54FF0BF0080F3118803F0BDFACE
:100150004FF0000080F31188BDE808401968086876
:10016000B0E8F00F80F30988704700BF98000020C6
:1001700001B44FF0BF0080F3118801BC704701B497
:100180004FF0000080F3118801BC7047002004E0AC
:1001900061212E4A1154411C88B21428F8DB7047A3
:1001A0008AB0142105A803F098FD00BF28A103C957
:1001B000CDE9030100200190029000BF00F07CFC1B
:1001C00025A004F04DF817E02BA1204803F090FD86
:1001D00090B129A11D4803F08BFD04464FF47A70BD
:1001E00000F0FBF9FFF7D2FF184925A004F038F81A
:1001F000214627A004F034F8E6E710B5022001F00C
:100200005CFF012817D1022001F06BFF234824A1D5
:100210000268244804F034F800BF4FF0007001F089
:100220002DFF0028F9D04FF0007001F03BFF0621B0
:100230001D4800F0B3FD10BD00BF00BFFEE700BFCA
:1002400000BF4FF47A7003F019FAFAE72E0000208D
:10025000414A5538694B3961CFC2C3E6CAC74341E9
:100260004ED7D4B2E2CAD4A3A8BBB7BBD8C4A3CAE2
:10027000BDA3A90D0A000000535441520000000024
:1002800055617274325F4275663D2573200000002F
:100290004D797374723D2573200000002400002006
:1002A00025642000280000208000024010B50120B5
:1002B00002F011FC50B1012002F030FC1D48007822
:1002C00008B9012000E000201A49087010BD10B5DF
:1002D000022002F000FCB8B14FF4003001F095FFAD
:1002E000022002F01BFC02F0DBFB802001F08DFFFE
:1002F000022001F08AFF012002F08CF910B10120E8
:1003000002F092F900F089F80B48007808B9012052
:1003100000E000200849087010BD7047704700BF1A
:10032000FEE700BFFEE700BFFEE700BFFEE7704745
:100330007047704742000020430000200CB50020A9
:10034000019000906C48006840F480306A49086071
:1003500000BF6948006800F4003000900198401C1C
:100360000190009818B90198B0F5A06FF1D16248DA
:10037000006800F4003010B10120009001E000207E
:1003800000900098012843D15C48006840F01000BC
:100390005A4908600846006820F0030008600846D3
:1003A000006840F0020008605348406852494860C5
:1003B0000846406848600846406840F480604860ED
:1003C0000846406820F47C1048600846406840F4C5
:1003D000E81048600846006840F08070086000BF80
:1003E0004548006800F000700028F9D04248406895
:1003F00020F00300404948600846406840F0020091
:10040000486000BF3C48406800F00C000828F9D163
:100410000CBD10B5FFF792FF10BD10B5364800684F
:1004200040F00100344908600846406834490840FB
:100430003149486008460068324908402E49086042
:100440000846006820F4802008600846406820F4D0
:10045000FE0048604FF41F008860FFF7DAFF4FF09E
:1004600000602949086010BD10B50021002000225D
:10047000214B5B6803F00C0121B1042906D0082947
:1004800028D107E0214B224C236027E01F4B204C52
:10049000236023E0184B5B6803F47010164B5B6815
:1004A00003F48032022303EB904022B9194B4343FB
:1004B000174C23600DE0104B5B6803F4003323B14D
:1004C000144B4343124C236003E0104B4343104C46
:1004D000236003E00D4B0E4C236000BF00BF064BB2
:1004E0005B68C3F303130C4CE15C094B1B68CB4006
:1004F000074C236010BD00000010024000200240A5
:100500000000FFF8FFFFF6FE08ED00E000127A00A1
:100510004400002000093D004800002010B56FF0A5
:10052000040000F084FD534800685349B0FBF1F02B
:10053000524908700846007800EB4001C1EBC0103A
:100540004FF6FF7101EAC0004D49088010BD014619
:100550004A4A12784A434FF0E0235A6100229A61D6
:100560001A46126942F001021A6100BF4FF0E02200
:10057000106900F001021AB100F48032002AF5D0AF
:100580004FF0E022126922F001024FF0E0231A61DD
:1005900000229A6170473A4909884FF0E022516180
:1005A000002191611146096941F00101116100BF0B
:1005B0004FF0E021086900F0010119B100F4803129
:1005C0000029F5D04FF0E021096921F001014FF039
:1005D000E022116100219161704710B503460024AB
:1005E00003E0FFF7D8FF601C84B29C42F9DB10BD2A
:1005F00070B5034623480380008800282DDD1D4880
:1006000000684FF47A72B0FBF2F1481EB0F1807FBF
:1006100001D301201BE0481E4FF0E022506150172B
:100620000F22002807DA1407260E174C00F00F05DA
:100630002D1F665503E01407250E144C255400BFEA
:1006400000204FF0E022906107201061002020B1CF
:1006500000BF0C4800880028FBD100200949088011
:100660004FF0E020006920F001004FF0E021086128
:1006700070BD00004400002000127A0058000020E5
:100680005A0000205C00002018ED00E000E400E0CB
:10069000014600BF704700BFE44A128802F04002E2
:1006A000002AF9D0C2B2E14B1B1D1A80704710B569
:1006B00086B00446012144F2040002F031F94FF4FF
:1006C0000070ADF8140003208DF8160018208DF886
:1006D000170005A9D64801F001FE4FF48060ADF87F
:1006E000140004208DF8170005A9D14801F0F6FD8B
:1006F00025208DF8000003208DF801008DF8020000
:1007000001208DF80300684600F047FC01940020AA
:10071000ADF80800ADF80A00ADF80C00ADF8100017
:100720000C20ADF80E0001A9C24802F044FA0122E3
:1007300040F22551BF4802F0D6FA0121BD4802F02F
:10074000C6FA06B010BD70B505460C460BE000BFFA
:100750008021284602F096FB0028F9D014F8011BEE
:10076000284602F021FB20780028F0D170BD10B59A
:10077000B1A1B048FFF7E7FF10BD10B5AEA1AB487F
:10078000FFF7E1FF10BD2DE9F04107460D46164683
:100790000024A04600BF19E000BF2021384602F027
:1007A00071FB0028F9D02021384602F06BFB0128AC
:1007B0000AD1384602F0FCFA28554FF480519F4880
:1007C00001F03BFE4FF00108601C84B2B442E3DB51
:1007D0004046BDE8F08110B5994804780A20FFF73B
:1007E000FCFE97480078844205D19548007810B106
:1007F000002093490870204610BD30B585B00446EE
:100800000D4603208DF812008A48844217D1012139
:10081000880302F085F818208DF813006015ADF8F4
:10082000100004A9824801F059FD04208DF813003E
:100830000002ADF8100004A97D4801F04FFD7B488F
:10084000844217D10121480402F077F818208DF86E
:1008500013000420ADF8100004A9754801F03EFD16
:1008600004208DF813000820ADF8100004A970488A
:1008700001F034FD7348844217D10121880402F04D
:100880005CF818208DF813002015ADF8100004A9AD
:100890006A4801F023FD04208DF813004002ADF8F2
:1008A000100004A9654801F019FD00950020ADF87D
:1008B0000C00ADF808000C20ADF80A000020ADF8DF
:1008C0000600ADF804006946204602F074F90121E3
:1008D000204602F0FCF905B030BD10B586B00446E4
:1008E0000121480402F029F80121042002F018F83F
:1008F0004E4802F01DF90420ADF8140018208DF8C0
:10090000170003208DF8160005A9494801F0E6FC00
:100910000820ADF8140004208DF8170005A94448FC
:1009200001F0DCFC01940020ADF80800ADF80A00ED
:10093000ADF80C00ADF810000C20ADF80E0001A9C8
:100940003A4802F038F926208DF8000001208DF891
:10095000010000208DF8020001208DF80300684698
:1009600000F01BFB012240F22551304802F0BBF998
:1009700001212E4802F0ABF940212C4802F08FFAF9
:1009800006B010BD10B586B00446012144F2040043
:1009900001F0C6FF274802F0CBF84FF40070ADF825
:1009A000140018208DF8170003208DF8160005A9F3
:1009B0001F4801F093FC4FF48060ADF81400042050
:1009C0008DF8170005A91A4801F088FC0194002051
:1009D000ADF80800ADF80A00ADF80C00ADF8100055
:1009E0000C20ADF80E0001A9124802F0E4F8252011
:1009F0008DF8000002208DF8010001208DF8020022
:100A00008DF80300684600F0C8FA012240F2255133
:100A1000084802F068F90121064802F058F940211F
:100A2000044802F03CFA06B010BD0000004400404B
:100A300000080140003801400D0A0000000C014090
:100A40006600002000480040F8B507460D461646EF
:100A50001C468DF80360ADF8005003208DF80200AD
:100A60006946384601F03AFC24B900222946384646
:100A700001F0E5FC012C04D101222946384601F0A1
:100A8000DEFCF8BD10B50121042001F049FF012171
:100A90007F4801F052FF10BD10B501F0D3FD4FF4B7
:100AA000803001F0EFFD00BF312001F00EFE002884
:100AB000FAD0FFF7B2FC10BD1CB5FFF7EDFFFFF752
:100AC000E1FFFFF72BFD01231022D1017148FFF751
:100AD000BBFF0123042291026E48FFF7B5FF4FF4DC
:100AE000E1316D48FFF789FE05200721062300222A
:100AF000CDE900100121694800F06CF91CBD30B54A
:100B0000674800684FF47A72B0FBF2F1481EB0F10A
:100B1000807F00D31BE0481E4FF0E0225061501749
:100B20000F22002807DA13071D0E5E4B00F00F049A
:100B3000241F1D5503E013071C0E5B4B1C5400BF04
:100B400000204FF0E02290610720106100BF30BD0F
:100B50002DE9FC4105460C46164614271CB1082C0D
:100B600001D8C4F34707102C05D3802C03D80421E7
:100B700001EB5410C7B2FF2C06D9B4F5006F03D8AF
:100B8000082101EB5420C7B2B4F5805F06D3B4F559
:100B9000004F03D80C2101EB5430C7B20F2F0FDCEC
:100BA000E8B2394601F0B0FC009401208DF806004F
:100BB00000208DF804008DF80560684601F0AEFA5B
:100BC000BDE8FC811CB50F21012001F09DFC4FF414
:100BD0000040009001208DF8060000208DF80400F0
:100BE00008208DF80500684601F098FA1CBD1CB578
:100BF0000D21012001F088FC4FF4005000900120ED
:100C00008DF8060000208DF8040008208DF80500FE
:100C1000684601F083FA1CBD1CB50A21012001F0D1
:100C200073FC4FF48060009001208DF806000020D6
:100C30008DF8040008208DF80500684601F06EFA72
:100C40001CBD1CB50821002001F05EFC4FF4807033
:100C5000009001208DF8060000208DF80400082087
:100C60008DF80500684601F059FA1CBD1CB54FF41B
:100C70000030009001208DF8060000208DF804005F
:100C800008208DF80500684601F048FA1CBD0000F8
:100C900000000202000801400044004000640040DF
:100CA0004400002018ED00E000E400E02DE9F041F0
:100CB0008CB004460D4616461F46DDF84880424873
:100CC000844207D340487830844203D80121084643
:100CD00001F019FE3D48844207D33C48503084421D
:100CE00003D80121022001F00EFE204601F0DEF8BB
:100CF000CDF81080039500200B9002964FF4806091
:100D0000089000200690099001974FF4807007909A
:100D1000002005904FF400500A9001A9204601F0F0
:100D200067F90CB0BDE8F0812DE9F0418CB00446C4
:100D30000D4616461F46DDF848802348844207D3F7
:100D400021487830844203D80121084601F0DBFDB8
:100D50001E48844207D31D485030844203D80121E5
:100D6000022001F0D0FD204601F0A0F8CDF810805F
:100D7000039500200B90029608908020069000209A
:100D800009900197079005904FF400500A9001A92F
:100D9000204601F02DF90CB0BDE8F08170B5044695
:100DA0000D460021204601F04EF92946204601F06B
:100DB0005FF90121204601F046F970BD10B501210F
:100DC000034800F0B1F910BD0800024008040240D9
:100DD000002401402DE9F04788B004460D46164630
:100DE0001F46DDE910894FF0000A6448844213D1A0
:100DF0000121042001F094FD0121480601F09DFD30
:100E000001234822D9025E48FFF71EFE0223182262
:100E1000D9025B48FFF718FE5A48844213D10121DA
:100E2000082001F07DFD0121880601F086FD0123E7
:100E3000042291025448FFF707FE012318225903A8
:100E40005148FFF701FE204600F038FB00208DF8E6
:100E50001B008DF81C008DF816508DF81D008DF8C4
:100E60001E008DF81A008DF81F00ADF814908DF853
:100E700017608DF818708DF8198005A9204600F0CC
:100E800036FB824601208DF8110000208DF80E00FF
:100E9000ADF80C004AF6CD30ADF804004EF698706F
:100EA000ADF806004FF6FF70ADF80800C01FADF8B2
:100EB0000A0000208DF80F0001208DF8100001A815
:100EC00000F09FFB504608B0BDE8F087F0B587B052
:100ED00007460D4600240020009001908DF8110077
:100EE00004208DF8100040F25E50029027480390D5
:100EF0008DF8125000BF04E0395D0DF1130001556B
:100F0000641CAC42F8DB02A91C4800F069FC0646F0
:100F100040F6FF7400E0641E3146184800F0F8FC0B
:100F2000012801D0002CF6D114B9002007B0F0BD83
:100F30000120FBE70FB470B5099D40F6FF74002156
:100F40000E4800F0C5FD18B9002070BC5DF814FB18
:100F500004AA0021094800F038FD002404E00DF146
:100F60001B00005D2855641C9DF81A00A042F6DCA9
:100F70000021024800F0A1FD0120E6E700640040E6
:100F80000008014000680040000C0140F3BD7915E5
:100F900031490143314A1160704770B50021002387
:100FA0000F22C47804B32D4C246804F4E064C4F523
:100FB000E064210AC1F10403CA40447804FA03F151
:100FC0008478144021430901254C0678A155047802
:100FD00004F01F050124AC4005786D11AD0005F14A
:100FE000E025C5F8004109E0047804F01F0501245C
:100FF000AC401C4D0678761145F8264070BD1A4A63
:101000000A400243154B1B1F1A60704739B1134A3F
:10101000121D12680243114B1B1D1A6006E00F4A95
:10102000121D126882430D4B1B1D1A607047042865
:1010300008D14FF0E021096941F004014FF0E022AE
:10104000116107E04FF0E021096921F004014FF040
:10105000E0221161704700000000FA050CED00E08D
:1010600000E400E080E100E080FFFF1F10B50446CF
:10107000FA48844208D10121401501F06BFC00219F
:10108000601501F067FC17E0F548844208D10121A2
:10109000001501F05FFC0021201501F05BFC0BE066
:1010A000F048844208D10121C80301F053FC00211B
:1010B0004FF4004001F04EFC10BD30B50246002058
:1010C00000235068E84C20400D790C6844EA052460
:1010D000204350609068E54C2040D1E902542C43F5
:1010E0004D7944EA450420439060D06A20F47000B2
:1010F0000C7C641EE4B2234340EA0350D06230BD4E
:1011000000210160017141718160C16001210174A0
:10111000704721B1826842F00102826003E0826878
:1011200022F001028260704721B1826842F480722D
:10113000826003E0826822F480728260704710B59A
:101140000023CBB21AB144681C43446002E04468F7
:101150009C43446010BD816841F008018160704784
:10116000014600208A6802F008020AB1012000E06E
:1011700000207047816841F004018160704701469A
:1011800000208A6802F004020AB1012000E0002079
:10119000704721B1826842F4A002826003E0826855
:1011A00022F4A00282607047014600208A6802F49F
:1011B00080020AB1012000E00020704710B50A4605
:1011C00000210023416821F46041531E41EA43316C
:1011D000416010BD21B1426842F40062426003E008
:1011E000426822F4006242607047F0B504460D4642
:1011F00000200021092D11DDE068A5F10A0606EBAB
:101200004607072606FA07F18843A5F10A0606EB0A
:10121000460603FA06F10843E0600CE0206905EB9E
:101220004507072606FA07F1884305EB450603FA4A
:1012300006F108432061072A0FDA606B561E06EBA1
:1012400086071F2606FA07F18843561E06EB860618
:1012500005FA06F10843606322E00D2A0FDA206BDD
:10126000D61F06EB86071F2606FA07F18843D61F0E
:1012700006EB860605FA06F10843206310E0E06AF3
:10128000A2F10D0606EB86071F2606FA07F1884332
:10129000A2F10D0606EB860605FA06F10843E062A8
:1012A000F0BD21B1826842F48012826003E082685E
:1012B00022F48012826070470146C86C80B2704789
:1012C00066484C300068704721B1426842F4806241
:1012D000426003E0426822F480624260704721B1BC
:1012E000426842F48052426003E0426822F4805235
:1012F000426070470A460021816821F4E0411143B1
:101300008160704721B1826842F40042826003E04C
:10131000826822F400428260704721B1826842F400
:101320000212826003E0826822F402128260704737
:10133000014600208A6802F400120AB1012000E090
:1013400000207047F0B50446154600200022002614
:10135000092911DDE068A1F10A0707EB470C07270F
:1013600007FA0CF29043A1F10A0707EB470703FACB
:1013700007F21043E0600CE0206901EB410C072705
:1013800007FA0CF2904301EB410703FA07F210430E
:101390002061A06BC0F30156EF1C06F1010CA7EB16
:1013A0000C0707EB870C1F2707FA0CF29043EF1C82
:1013B00006F1010CA7EB0C0707EB870701FA07F210
:1013C0001043A063F0BD10B50A4600210023816BD5
:1013D00021F44011531E41EA0351816310BD08B549
:1013E000002300930090009B0B440093009B1A6025
:1013F00008BD08B5024600200090009201F12800C7
:10140000009B184400900098006880B208BD0A460E
:1014100000214168164B19401143416070474162F9
:10142000826270470A460021416821F01F01114382
:101430004160704740B109490831096841F4000131
:10144000064A0832116007E004490831096821F4AE
:101450000001024A08321160704700000024014078
:1014600000280140003C0140FFFEF0FFFDF7F1FFC6
:10147000FFFD3FFF0246002013680B400BB1012027
:1014800000E000207047CA430260704770B5024612
:101490000020002300240B125568CEB205EA060492
:1014A00015681D4015B10CB1012000E0002070BD91
:1014B00000220A12D34303607047000010B50446AF
:1014C000FE48844209D10121480601F050FA00216A
:1014D0004FF0007001F04BFA08E00121880601F09E
:1014E00046FA00214FF0806001F041FA10BD30B59E
:1014F000024600200023146824F0020414601468DB
:1015000044F00104146000E05B1C546804F0010422
:101510001CB94FF6FF74A342F6D1546804F00104DD
:101520000CB900206CE08C79012C04D1146844F0D3
:101530008004146003E0146824F080041460CC7903
:10154000012C04D1146844F04004146003E01468D2
:1015500024F0400414600C7A012C04D1146844F087
:101560002004146003E0146824F0200414604C7A12
:10157000012C04D1146844F01004146003E01468D2
:1015800024F0100414608C7A012C04D1146844F007
:101590000804146003E0146824F008041460CC7A92
:1015A000012C04D1146844F00404146003E01468AE
:1015B00024F0040414608C78A407CD7844EA056410
:1015C0000D7944EA05444D7944EA05540D886D1EB1
:1015D0002C43D461146824F001041460002300E05B
:1015E0005B1C546804F001041CB14FF6FF74A34265
:1015F000F6D1546804F001040CB1002000E0012091
:1016000030BD10B50021837A012202FA03F1AC4A01
:10161000126842F00102AA4B1A60A94A1C321268F1
:101620008A43A74B1C331A60027BCAB9A44A0C3206
:1016300012688A43A24B0C331A604288C38842EA7C
:1016400003439F4A4032847A42F8343002888388C8
:1016500042EA03439A4A4032847A02EBC40253605E
:10166000027B012A19D1964A0C3212680A43944B24
:101670000C331A604288038842EA0343904A40329E
:10168000847A42F83430C288838842EA03438C4A21
:101690004032847A02EBC4025360C27A3AB9884A73
:1016A000121D12688A43864B1B1D1A6006E0844A8D
:1016B000121D12680A43824B1B1D1A60028932B93F
:1016C0007F4A143212688A437D4B14331A600289B0
:1016D000012A06D17A4A143212680A43784B14332D
:1016E0001A60427B012A06D1754A1C3212680A43ED
:1016F000734B1C331A60724A126822F00102704B5D
:101700001A6010BD00218171C17101724172817234
:10171000C1728170C17003210171022141710121E7
:10172000018070476649096841F00101644A11600F
:101730001146096843F60E729143614A11601146E1
:10174000096841EA002111601146096821F0010190
:101750001160704721B1026842F48032026003E0F8
:10176000026822F4803202607047E1B1026842F000
:10177000800202604FF4C272125842F480734FF438
:10178000C27213504FF4CA72125842F480734FF46D
:10179000CA7213504FF4D272125842F480734FF44D
:1017A000D27213501BE0026822F0800202604FF4F4
:1017B000C272125822F480734FF4C27213504FF465
:1017C000CA72125822F480734FF4CA7213504FF445
:1017D000D272125822F480734FF4D27213507047B1
:1017E00010B502460020936803F08063B3F1806F68
:1017F00000D110E0936803F00063B3F1006F01D1F2
:10180000012008E0936803F08053B3F1805F01D1B9
:10181000022000E00420042879D002F5C07303EB15
:1018200000131B6803F0010402F5C07303EB0013FF
:101830001C600B7A7BB94B7A0C8843EA445302F55F
:10184000C07404EB00142468234302F5C07404EB55
:101850000014236010E00B7A4C6843EAC4034C7A0E
:10186000234302F5C07404EB00142468234302F5FB
:10187000C07404EB001423608B7A03F00F038B72A7
:1018800002F5C07303EB00135B6823F00F0402F54D
:10189000C07303EB00135C6002F5C07303EB00132D
:1018A0005B688C7A234302F5C07404EB0014636018
:1018B0008B7B1C064B7B44EA034403E0006400403E
:1018C000006600400B7B44EA0323CC7A234302F5F5
:1018D000C07404EB0014A3608B7C1C064B7C44EAB0
:1018E00003440B7C44EA0323CC7B234302F5C074FE
:1018F00004EB0014E36002F5C07303EB00131B68F4
:1019000043F0010402F5C07303EB00131C6010BD2B
:1019100010B50246002321B1012907D002290FD1B9
:1019200009E09068F94C00EA04030BE09068F84C79
:1019300000EA040306E09068F64C00EA040301E0C4
:10194000002300BF00BFF44C181BA34216D007DCD5
:1019500083B16FF08060184470B1022818D111E093
:10196000B0F5007F10D0ED4C204448B1B0F5003FF9
:101970000ED10BE002230DE000230BE0002309E071
:10198000002307E0012305E0012303E0012301E038
:10199000002300BF00BFD8B210BD21B1012907D07C
:1019A00002290FD109E0826842F0800282600AE0D9
:1019B000826842F40042826005E0826842F40002DC
:1019C000826000E000BF00BF704710B500F5D8731B
:1019D00003EB01131B6803F004031372137A53B96A
:1019E00000F5D87303EB01131B6840F2FF7404EA9F
:1019F0005353136009E000F5D87303EB01131B6820
:101A00006FF0604404EAD303536000F5D87303EB2E
:101A100001131B6803F00203537200F5D87303EB44
:101A200001135B6803F00F03937200F5D87303EBA7
:101A300001135B681B0AD37400F5D87303EB011321
:101A40009B68D37200F5D87303EB01139B681C0AE3
:101A5000147300F5D87303EB01139B681C0C5473CB
:101A600000F5D87303EB01139B681B0E937300F50D
:101A7000D87303EB0113DB68D37300F5D87303EB62
:101A80000113DB681C0A147400F5D87303EB01130F
:101A9000DB681C0C547400F5D87303EB0113DB688E
:101AA0001B0E937421B9C36843F02003C36003E0A5
:101AB000036943F02003036110BD21B9C26842F0FD
:101AC0002002C26003E0026942F020020261704716
:101AD0000246002019B9D36803F0030006E001298B
:101AE00003D1136903F0030000E00020704710B534
:101AF00002460B4600204FF6FF71BBB9146824F074
:101B0000020444F00104146000E0491E546804F02B
:101B10000304012C01D00029F7D1546804F0030418
:101B2000012C01D0002032E0012030E0012B13D144
:101B3000146824F00304146000E0491E546804F0A3
:101B400003040CB10029F8D1546804F003040CB16B
:101B500000201CE001201AE0022B17D1146824F0A9
:101B6000010444F00204146000E0491E546804F0CB
:101B70000304022C01D00029F7D1546804F00304B7
:101B8000022C01D0002002E0012000E0002010BD66
:101B9000014600200A6822F0010242F002020A60B7
:101BA0004A6802F00302022A00D101207047014670
:101BB0004FF6FF7200200B6823F002030B6000E079
:101BC000521E4B6803F00203022B01D1002AF7D109
:101BD0004B6803F00203022B00D00120704701463E
:101BE00000208A6902F070007047014600208A696F
:101BF000100E7047014600208A69C2F30740704703
:101C00001AB143690B43436102E043698B4343616B
:101C1000704710B50246002001F4700343B1936988
:101C2000C1F3130423400BB101202DE000202BE071
:101C300001F0807343B15368C1F3130423400BB127
:101C4000012021E000201FE001F0006343B1936810
:101C5000C1F3130423400BB1012015E0002013E071
:101C600001F0007343B1D368C1F3130423400BB1F7
:101C7000012009E0002007E01369C1F313042340A9
:101C80000BB1012000E0002010BD0022244B99423E
:101C900002D10023836111E0C1F3130201F000734C
:101CA0000BB1C2600AE001F080630BB1026105E094
:101CB00001F000630BB1826000E0426070470246B1
:101CC000002002EA01030BB1012000E00020704770
:101CD00070B504460D46002660692840002872D081
:101CE000B5F5807F69D01DDC082D42D006DC012DC2
:101CF0002DD0022D31D0042D7FD134E0102D3ED0D7
:101D0000202D42D0402D78D145E000000300000492
:101D10000003000800000310000100080001FFF7A5
:101D20007000F030B5F5004F61D009DCB5F5007FEB
:101D30004AD0B5F5806F4DD0B5F5006F5DD150E05C
:101D4000B5F5803F2DD0B5F5003F56D12FE0A06806
:101D50005549FFF7B4FF064651E0E0680321FFF75D
:101D6000AEFF06464BE0E0680821FFF7A8FF0646F5
:101D700045E0E0681021FFF7A2FF06463FE020693A
:101D80000321FFF79CFF064639E020690821FFF791
:101D900096FF064633E020691021FFF790FF0646C4
:101DA0002DE060680821FFF78AFF064627E060689B
:101DB0001021FFF784FF064621E0A0690121FFF70B
:101DC0007EFF06461BE01BE0A0690221FFF777FFBC
:101DD000064614E0A0690421FFF771FF06460EE0F5
:101DE0000BE0A0697021FFF76AFF064607E0606814
:101DF0000421FFF764FF064601E0002600BF00E073
:101E00000026304670BDB1F5007F3AD00FDC2029A6
:101E100028D006DC01291CD004291DD0082940D176
:101E20001DE0402921D0B1F5807F3AD126E0B1F5FF
:101E3000004F31D006DCB1F5806F25D0B1F5006FD1
:101E40002FD124E0B1F5803F12D0B1F5003F28D169
:101E500011E0154A826025E00822C26022E01022CB
:101E6000C2601FE0082202611CE01022026119E03A
:101E70000822426016E01022426013E00422426011
:101E800010E0042242600DE0042242600AE00022D9
:101E900082610422426005E00022826104224260E5
:101EA00000E000BF00BF70470101010001684FF66C
:101EB000FE72114001600021016041608160C160DB
:101EC0008D49884208D18C490839496841F00F0191
:101ED000894A083A51608AE087491431884208D11A
:101EE00085490839496841F0F001834A083A516050
:101EF0007DE081492831884208D17F490839496805
:101F000041F470617C4A083A516070E07A493C3192
:101F1000884208D178490839496841F47041764AC5
:101F2000083A516063E074495031884208D17249DF
:101F30000839496841F470216F4A083A516056E007
:101F40006D496431884208D16B490839496841F4C8
:101F50007001694A083A516049E06749783188421E
:101F600008D165490839496841F07061624A083A08
:101F700051603CE06149884206D1011F096841F087
:101F80000F01021F116032E05C491431884208D110
:101F90005A49091F096841F0F001584A121F11609F
:101FA00025E056492831884208D15449091F09685B
:101FB00041F47061514A121F116018E04F493C31E1
:101FC000884208D14D49091F096841F470414B4AC4
:101FD000121F11600BE049495031884207D147492F
:101FE000091F096841F47021444A121F11607047AB
:101FF00010B50022026847F6F0739A430C6A8B68AA
:1020000023430C6923434C6923438C692343CC69E4
:1020100023434C6A23438C6A23431A430260CB68F0
:1020200043600B6883604B68C36010BD0021016092
:1020300041608160C160016141618161C161016292
:1020400041628162704721B1026842F00102026080
:1020500004E002684FF6FE731A40026070471AB13E
:1020600003680B43036002E003688B43036070471F
:10207000416070470146486880B2704701460020C1
:10208000002201F080531BB11C4B083B1A6802E090
:10209000194B083B1A6802EA01030BB1012000E06A
:1020A0000020704700F0805119B11449091F0860E1
:1020B00002E01149083948607047014600200022BB
:1020C00001F080531BB10D4B083B1A6802E00A4B2C
:1020D000083B1A6802EA01030BB1012000E000206E
:1020E000704700F0805119B10449091F086002E0EF
:1020F000014908394860704708000240080402405E
:10210000002044490860091D0860091D0860091D78
:10211000086041483F4914310860704700213D493B
:102120008279002A3AD00A46126803689A430B461D
:102130001A600A1D126803689A430B1D1A6002791F
:1021400011440A6803681A430A60324A0832126866
:1021500003689A432F4B08331A601A1D12680368EC
:102160009A432C4B0C331A604279102A0ED11A1F55
:10217000126803681A43274B08331A601A1D126845
:1021800003681A43234B0C331A600DE0214942794E
:1021900011440A6803681A430A6005E00279114491
:1021A0000A6803689A430A60704700210160017160
:1021B0000C21417100218171704716491031096865
:1021C0000143144A10321160704701460020114A41
:1021D000143212680A400AB1012000E00020704762
:1021E0000C49143108607047014600200022094B59
:1021F0001B6803EA0102074B14331B680B4013B141
:102200000AB1012000E00020704702491431086043
:102210007047000000040140FFFF0F0010B50446A6
:10222000CC48844208D10121042000F093FB002116
:10223000042000F08FFB46E0C748844208D101210A
:10224000082000F087FB0021082000F083FB3AE023
:10225000C248844208D10121102000F07BFB0021FC
:10226000102000F077FB2EE0BD48844208D1012108
:10227000202000F06FFB0021202000F06BFB22E00B
:10228000B848844208D10121402000F063FB0021BE
:10229000402000F05FFB16E0B348844208D10121E2
:1022A000802000F057FB0021802000F053FB0AE063
:1022B000AE48844207D10121801500F04BFB00217C
:1022C000A01500F047FB10BD10B50121084600F035
:1022D00041FB0021012000F03DFB10BD2DE9F04144
:1022E000024600250026002000230024002791F844
:1022F00003C00CF00F0591F803C00CF0100CBCF1FA
:10230000000F03D091F802C04CEA050591F800C017
:10231000BCF1000F31D0146800202BE04FF0010C0D
:102320000CFA00F3B1F800C00CEA03069E4220D17B
:1023300083004FF00F0C0CFA03F7BC4305FA03FCC3
:102340004CEA040491F803C0BCF1280F06D14FF009
:10235000010C0CFA00FCC2F814C00AE091F803C0AA
:10236000BCF1480F05D14FF0010C0CFA00FCC2F88B
:1023700010C0401C0828D1D31460B1F800C0BCF1D3
:10238000FF0F34DD546800202EE000F1080C4FF000
:10239000010808FA0CF3B1F800C00CEA03069E42EB
:1023A00021D183004FF00F0C0CFA03F7BC4305FA60
:1023B00003FC4CEA040491F803C0BCF1280F05D1DA
:1023C00000F1080C08FA0CF8C2F8148091F803C068
:1023D000BCF1480F07D100F1080C4FF0010808FAD2
:1023E0000CF8C2F81080401C0828CED35460BDE819
:1023F000F0814FF6FF710180022181700421C170CC
:1024000070470246002093680B400BB1012000E0AA
:10241000002070470146886880B27047024600205D
:10242000D3680B400BB1012000E00020704701464B
:10243000C86880B2704701617047416170470AB156
:10244000016100E041617047C16070474FF4803224
:102450000A438261816182618269826970470246B2
:102460000020434B18684FF68073184040EA021072
:1024700008433F4B186070473E49C8617047F0B54C
:102480000A46002300240021002500F00046B6F192
:10249000004F02D1364EF16901E0354E7168C0F34C
:1024A000034583B200F44016B6F5401F08D121F071
:1024B00070612F4E766826F070662D4F7E6012E0B8
:1024C00000F48016B6F5801F06D1032606FA05F43F
:1024D000A14341F0706106E0460D360103FA06F6AD
:1024E000B14341F0706122B1460D360103FA06F6A0
:1024F000314300F00046B6F1004F02D11C4EF161AD
:1025000001E01B4E7160F0BD30B500228B071C0F3F
:102510000F2303FA04F2164B08338C1053F82430BF
:102520009343134C08348D1044F8253023468C1007
:1025300053F824308C07240F00FA04F423430C4C86
:1025400008348D1044F8253030BD0A49DC3108606C
:102550007047000000080140000C014000100140DD
:102560000014014000180140001C014000200140FF
:10257000000001400000204210B50121080700F0D2
:10258000F6F900214FF0805000F0F1F910BD2A4912
:102590000862704728490861704701460020274AB1
:1025A000106820F0E0000843106070472249A03115
:1025B0000860704710B502460020204B186820F0D4
:1025C0000300104318601E4B1B6843F004031C4CAF
:1025D0002360012901D130BF00E020BF184B1B68E8
:1025E00023F00403164C236010BD1448006840F02B
:1025F0000400124908600846006840F002000860C4
:102600000F48006840F004000D49086000BF00BF9B
:1026100030BF704701460020084A52680A400AB19C
:10262000012000E0002070470449096841EA800168
:10263000024A11607047000000000E420070004026
:1026400010ED00E0DF48006840F00100DD4908605F
:1026500008464068DC490840DA4948600846006896
:10266000DA490840D74908600846006820F480200D
:1026700008600846406820F4FE0048604FF41F00E0
:1026800088607047CF49096821F48031CD4A1160D4
:102690001146096821F480211160B0F5803F03D014
:1026A000B0F5802F0ED106E0C649096841F48031AB
:1026B000C44A116007E0C349096841F4A021C14A36
:1026C000116000E000BF00BF704710B50146002256
:1026D000002300204A11012A02D1BA4C236806E0E7
:1026E000022A02D1B74C236A01E0B64C636A01F0BA
:1026F0001F02012494401C400CB1012000E0002086
:1027000010BD38B5002000900024002500BF312006
:10271000FFF7DBFF05460098401C00900098B0F5DD
:10272000A06F01D0002DF2D03120FFF7CEFF08B10D
:10273000012400E00024204638BD01460020A14AC3
:10274000106820F0F80040EAC10010607047A0490E
:1027500008607047024600209A4B586820F47C10AD
:1027600042EA01031843974B58607047984908663E
:10277000704701460020934A506820F00300084348
:10278000506070478F48406800F00C007047014669
:1027900000208C4A506820F0F000084350607047D9
:1027A00001460020874A506820F4E06008435060EA
:1027B000704701460020834A506820F4605040EA88
:1027C000C1005060704729B17E4A527A02437D4B66
:1027D0005A7204E07B4A527A82437A4B5A727047AB
:1027E0007B49D8310860704701460020754A50681F
:1027F00020F440400843506070470021714A203265
:102800001170704A82F82010012802D004280AD1E1
:1028100004E001216B4A2032117005E00521694A6C
:102820002032117000E000BF00BF704769490860A6
:1028300070476449096A0143624A116270476549F9
:1028400044390860704730B500210022002400237D
:102850005C4D6D6805F00C0121B1042905D00829F3
:1028600023D105E05C4D056022E05B4D05601FE073
:10287000544D6D6805F47012524D6D6805F4803446
:10288000022505EB92421CB9544D554305600BE0FF
:102890004C4D6D6805F400351DB1504D5543056034
:1028A00002E04D4D5543056002E04B4D056000BF11
:1028B00000BF444D6D6805F0F0010909484D6B5C9F
:1028C0000568DD4045603F4D6D6805F4E061090A2B
:1028D000434D6B5C4568DD4085603A4D6D6805F49D
:1028E0006051C90A3E4D6B5C4568DD40C560354DA1
:1028F0006D6805F44041890B3A4D6B5CC568B5FBCA
:10290000F3F5056130BD29B12E4A526902432D4BC2
:102910005A6104E02B4A526982432A4B5A6170473C
:1029200029B1284A92690243264B9A6104E0254A5C
:1029300092698243234B9A61704729B1214AD26937
:102940000243204BDA6104E01E4AD26982431D4BE8
:10295000DA61704729B11B4AD2680243194BDA6029
:1029600004E0184AD2688243164BDA60704729B1F6
:10297000144A12690243134B1A6104E0114A1269A6
:102980008243104B1A617047124940390860704702
:102990000F49C86470470B49C87170470948406ABD
:1029A00040F0807007494862704701460020054AA0
:1029B00092680A400AB1012000E0002070470149F6
:1029C00088727047001002400000FFF8FFFFF6FE1B
:1029D000000042428004424200127A0000093D0099
:1029E000670000207700002029B1504A1288024376
:1029F0004E4B1A8004E04D4A128882434B4B1A809A
:102A000070474A48001D008840F010004749091DE2
:102A1000088070474548001D00884FF6EF71084058
:102A20004249091D08807047002140481C30018838
:102A3000001F008841EA0040704700B50246FFF7DA
:102A4000E0FF100C394918310880091D0A80FFF792
:102A5000E1FF00BD00B50246FFF7D3FFC2F303401C
:102A6000324908310880091D0A80FFF7D3FF00BDF5
:102A700000B50246FFF7C5FF100C2C492031088035
:102A8000091D0A80FFF7C6FF00BD0020274910314D
:102A900009880907080B254914310988084370473C
:102AA00000BF2248001D008800F020000028F8D058
:102AB00070471E48001D00884FF6F77108401B49FB
:102AC000091D088000BF1948001D008800F008009B
:102AD0000028F8D0704701460020144A121D1288C1
:102AE0000A400AB1012000E0002070470F49091D8B
:102AF000098881430D4A121D11807047014600204C
:102B00000A4A121D12880A40D0B2084A12880A40A6
:102B100012B108B1012000E0002070470349091DEF
:102B200009888143014A121D118070470028004026
:102B300010B50446FB48844209D101218803FFF700
:102B400009FF00214FF48040FFF704FF32E0F64810
:102B5000844209D101214804FFF709FF00214FF405
:102B60000030FFF704FF25E0F048844209D101213D
:102B70008804FFF7FCFE00214FF48020FFF7F7FEEA
:102B800018E0EB48844209D10121C804FFF7EFFEA9
:102B900000214FF40020FFF7EAFE0BE0E5488442F5
:102BA00008D101210805FFF7E2FE00214FF4801053
:102BB000FFF7DDFE10BD2DE9F04786B005460E4655
:102BC0000024A24600BFA1460027B08900B100BF83
:102BD0002F462C8A4CF6FF700440F08804432C8268
:102BE000AC894EF6F3100440B088318908437189EE
:102BF00008430443AC81AC8A4FF6FF400440B089DF
:102C00000443AC8201A8FFF71EFEC648874202D1EA
:102C1000DDF810A001E0DDF80CA0A88900F4004068
:102C200040B10AEBCA0000EB0A1031684900B0FB62
:102C3000F1F807E00AEBCA0000EB0A1031688900DE
:102C4000B0FBF1F86420B8FBF0F004012009642126
:102C500001FB1089A88900F4004040B1322000EB4C
:102C6000C900B0FBF1F000F00700044308E0322097
:102C700000EB09106421B0FBF1F000F00F000443F9
:102C80002C8106B0BDE8F0874FF416510160002199
:102C90008180C18001810C214181002181817047A7
:102CA00010B502460020108A4FF2FF0318400B882F
:102CB0004C8823438C882343CC88234318431082B9
:102CC00010BD0021018041808180C180704721B109
:102CD000828942F40052828104E082894DF6FF73BA
:102CE0001A4082817047F0B5034600240026002573
:102CF000002040F66A17B94200D100BF1846C1F360
:102D0000421401F01F06012707FA06F5012C01D134
:102D10000C3004E0022C01D1103000E014301AB164
:102D200007682F43076002E00768AF430760F0BD04
:102D30001AB1838A0B43838202E0838A8B438382A6
:102D40007047028A4FF6F0731A400282028A0A43E1
:102D50000282704782894FF2FF731A408281828912
:102D60000A438281704721B1828942F00202828146
:102D700004E082894FF6FD731A4082817047028A0F
:102D80004FF6DF731A400282028A0A4302827047BA
:102D900021B1028A42F48042028204E0028A4BF6A8
:102DA000FF731A4002827047C1F3080282807047A5
:102DB00001468888C0F308007047818941F001010D
:102DC00081817047028BD2B20283028B42EA0122D8
:102DD00002837047028B02F47F420283028B0A4314
:102DE0000283704721B1828A42F02002828204E08D
:102DF000828A4FF6DF731A408282704721B1828A3D
:102E000042F01002828204E0828A4FF6EF731A4089
:102E10008282704721B1828A42F00802828204E0F5
:102E2000828A4FF6F7731A408282704721B18289F5
:102E300042F40042828103E08289C2F30E02828161
:102E4000704721B1828A42F40062828204E0828A61
:102E50004FF2FF731A4082827047828A4FF6FB73EB
:102E60001A408282828A0A438282704721B1828A12
:102E700042F00202828204E0828A4FF6FD731A4019
:102E80008282704702460020B1F5007F00D100BF6A
:102E900013880B400BB1012000E00020704701F4C3
:102EA0000072B2F5007F00D100BFCA4302807047B4
:102EB00070B50246002400230025002040F66A1663
:102EC000B14200D100BFC1F3421501F01F0301263A
:102ED00006FA03F3012D02D19689334006E0022D54
:102EE00002D1168A334001E0968A33400C12012643
:102EF00006FA04F41688344013B10CB1012000E046
:102F0000002070BD10B50022002340F66A14A142D3
:102F100000D100BF0A1201249440A3B2DC43048014
:102F200010BD00000038014000440040004800404F
:102F3000004C0040005000400648804706480047CB
:102F4000FEE7FEE7FEE7FEE7FEE7FEE7FEE7FEE759
:102F5000FEE7FEE71B040008ED0000082DE9F04144
:102F600004464FF0000800F04DFB3D48006898B95A
:102F70003C493D4A1160002151604FF480413B4A79
:102F800051600021116037484FF480414160114683
:102F9000016001203249086044B1103404F0070098
:102FA00020B104F00700C0F108000444002C31D027
:102FB000B4F5804F2ED22C4F3846056801E02F46DD
:102FC0002D686868A04202D228680028F7D12748F7
:102FD00085421FD0386800F110082868386068689A
:102FE000001B202810D92E196868001B70606C60C7
:102FF00071681D4800E00068026852688A42FAD38E
:1030000002683260066000BF194968680968081ADA
:103010001749086000F04EFA4046BDE8F08170B5EF
:1030200006463546B6B1103D2C4600F0EBFA616815
:103030000D4800E00068026852688A42FAD30268CC
:10304000226004600A496068096808440849086009
:1030500000F030FA70BD0648006870477047000005
:1030600090000020D80000207C0000208400002078
:103070008C00002000F1080141604FF0FF318160B9
:1030800000F10801C1600161002101607047002169
:1030900001617047426853684B6043688B605368B6
:1030A000996051604160086103685B1C0360704770
:1030B00010B502460B685C1C0CB9106907E002F100
:1030C000080000E04068446824689C42FAD94468DB
:1030D0004C604C68A160886041600A611468641C9F
:1030E000146010BDD0E901329A60D0E901235A6022
:1030F00001694A68824201D182684A600022026105
:103100000A68521E0A607047001F4FF08073036008
:10311000001F0160001F0023036014380260203884
:10312000704723484FF0E02148610720086170474D
:1031300010B52048006840F47F001E49086008462A
:10314000006840F07F400860FFF7EBFF00201A495D
:103150000860FCF7E5FF002010BD70474FF080507D
:1031600014491C390860704710B5FDF701F8124882
:103170000068401C1049086010BD10B50E4800687A
:10318000401E0D4908600846006808B9FCF7F7FFC3
:1031900010BD10B54FF0805006491C39086000245E
:1031A000FCF7E6FF00F014F9FCF7E9FF10BD0000A2
:1031B0003F19010020ED00E09400002010B500242C
:1031C00007E004EB8401FA4A02EB8100FFF752FFAB
:1031D000641C052CF5D3F748FFF74CFFF648FFF7C2
:1031E00049FFF648FFF746FFF548FFF743FFF5486C
:1031F000FFF740FFEF48F4490860EF48F3490860E3
:1032000010BD2DE9F04104460E4615469846069F2E
:103210001022314604F1340000F07CFD00214320EF
:103220000155052D00D30425E5626564201DFFF7D7
:103230002EFF04F11800FFF72AFF2461C5F10500F5
:10324000A0616462BDE8F08170B505460E46482075
:10325000FFF784FE044694B11EB9A800FFF77EFE76
:1032600000E030462063206B20B92046FFF7D7FEF0
:10327000002404E0A900A522206B00F027FD2046D1
:1032800070BD2DE9FF4F81B0804615469946DDE9B6
:103290000E7A28461099FFF7D7FF0446002C56D027
:1032A000681E216B01EB800B2BF0070B00953A4653
:1032B0002046119B0299FFF7A4FF4A464146584613
:1032C000FFF722FF2060BAF1000F01D0CAF80040DA
:1032D000FFF74AFFBE480068401CBD490860BD4872
:1032E000006840B9BB4804600846006801280CD15A
:1032F000FFF764FF09E0B848006830B9B5480068D6
:10330000C06AB84201D8B3480460B449E06A0968A9
:10331000884202D9B149E06A0860B1480068401C9F
:10332000AF490860AF49E06A0968884202D9AD49EF
:10333000E06A0860E16A01EB81019D4A02EB8100CD
:10334000211DFFF7A7FE0126FFF717FF01E04FF051
:10335000FF36012E09D1A048006830B19D480068B1
:10336000C06AB84201D2FFF7F9FE304605B0BDE8A9
:10337000F08F70B50446FFF7F7FE96480068844268
:1033800000D1002414B99348006800E020460546A7
:10339000281DFFF7A7FEA86A18B105F11800FFF76E
:1033A000A1FE291D8648FFF775FE8F480068401C66
:1033B0008D4908608A480068401C89490860FFF709
:1033C000DCFE8548006810B10CB9FFF7C7FE70BD80
:1033D00070B586480068002866D185480068401CA2
:1033E000834908600846006808BB77490868774940
:1033F0000968754A1160754908607E490968491C69
:103400007C4A116070490968096809B9012100E026
:10341000002121B14FF0FF31774A116006E06A497F
:103420000968C968CC68744A6168116000BF704857
:10343000006871490968884235D300BF6248006856
:10344000006808B9012000E0002020B14FF0FF30F3
:103450006949086026E05C480068C068C46865681F
:1034600063480068A84202D2634805601AE0201D44
:10347000FFF738FEA06A18B104F11800FFF732FE1A
:103480005849E06A0968884202D95649E06A0860EA
:10349000E16A01EB8101464A02EB8100211DFFF741
:1034A000F9FDCBE700BF04E054480068401C5349D5
:1034B000086070BD70B50025FFF756FE4B480068E8
:1034C000401E4A4908600846006800284CD1404820
:1034D0000068002848D0002621E03848C068C46849
:1034E00004F11800FFF7FEFD201DFFF7FBFD3D492D
:1034F000E06A0968884202D93A49E06A0860E16AEC
:1035000001EB81012A4A02EB8100211DFFF7C2FD78
:103510003049E06A0968C96A884200D30126274811
:10352000006808B9012000E000200028D5D0334809
:10353000006860B106E0FFF74BFF30480068401EAE
:103540002E4908602D4800680028F4D10126012E7C
:1035500003D02B480068012805D101250020284907
:103560000860FFF7FBFD00BFFFF707FE284670BDB0
:1035700010B504461748006844601D48006884423E
:1035800007D214480168091D10480068FFF790FD34
:103590000CE010480168091D0B480068FFF788FD22
:1035A00015480068844201D21348046010BD000031
:1035B000D84000203C4100205041002064410020C0
:1035C000784100208C4100209C000020A0000020B9
:1035D000A800002098000020B8000020B0000020C3
:1035E000CC000020B4000020A4000020BC0000207B
:1035F000AC000020C8000020D0000020C000002047
:10360000C4000020FE480068401CFD490860704767
:103610002DE9F04104460F464FF00008FFF7F2FF96
:103620002068C519F74920680968884209D92068C7
:10363000A8420FD9F348006885420BD94FF0010822
:1036400008E02068A84203D8EE480068854201D906
:103650004FF001082560B8F1000F07D0EA48006874
:10366000001DFFF73FFD2846FFF782FFFFF722FF0F
:1036700006460EB9FFF772FDBDE8F08170B504464D
:1036800000267CB1FFF7BEFFDE4800680519DE4862
:103690000068001DFFF726FD2846FFF769FFFFF7CA
:1036A00009FF06460EB9FFF759FD70BD70B5044617
:1036B000FFF75AFD14B9D448006800E020460646DA
:1036C000F56AFFF75AFD284670BDCD48006818B16D
:1036D0000120CE49086025E004E0CD480068401E86
:1036E000CB490860CA48006800EB8000C94951F81E
:1036F00020000028F1D0C649096801EB8101C54AC4
:1037000002EB810041684968416000F108014268AC
:103710008A4202D14168496841604168C968BA4A31
:10372000116000BF704770B50446FFF71DFDB64835
:103730000068844200D1002414B9B348006800E056
:1037400020460546281DFFF7CDFCA86A18B105F1F3
:103750001800FFF7C7FC291DAF48FFF79BFCFFF7D8
:103760000CFD7CB9AD48006810B1FFF7F7FC09E02B
:10377000AB480068012803D10020A349086001E09C
:10378000FFF7A3FF70BD10B5014600200A46A24C0A
:103790005369A34201D1012300E0002383B1A14C6E
:1037A000936AA34201D1012300E00023012B07D03B
:1037B000936A0BB9012300E00023012B00D1012003
:1037C00010BD70B505462C4644B38F48006884424E
:1037D00024D0FFF7C9FC2046FFF7D5FF01281BD1F5
:1037E000201DFFF77FFC8A49E06A0968884202D9F8
:1037F0008749E06A0860E16A01EB8101854A02EBD2
:103800008100211DFFF746FC7F49E06A0968C96A0B
:10381000884201D3FFF7A2FCFFF7AFFC70BD70B583
:10382000054600262C462046FFF7ADFF012826D18D
:1038300073480068F0B97449E06A0968C96A884247
:1038400001D3012000E000200646201DFFF74AFCBE
:103850006F49E06A0968884202D96D49E06A0860E8
:10386000E16A01EB81016B4A02EB8100211DFFF748
:1038700011FC04E004F118016A48FFF70BFC304624
:1038800070BD10B50446206BFFF7C9FB2046FFF75B
:10389000C6FB10BD70B56448006818B3FFF7B2FEF0
:1038A0006248006808B9012000E000200546FFF7E3
:1038B00001FEBDB9FFF758FC5C48C068C468201D14
:1038C000FFF710FC56480068401E554908605648EE
:1038D0000068401E54490860FFF74FFC2046FFF780
:1038E000D0FF00BF70BD00BFFFF7D4FF494800689C
:1038F0000128F9D9FFF732FCF6E71FB50020009048
:10390000019002900346402249A103904A48FFF7E4
:10391000B8FC0446012C09D1FCF72AFC01203F49E0
:103920000860002037490860FFF702FC1FBD10B592
:10393000FCF71EFC002039490860FFF70EFC10BDA3
:1039400010B5FFF711FC2F480468FFF716FC20465E
:1039500010BD70B50025FCF70BFC2A480468FCF785
:103960000EFC204670BD2E480068704770B5334885
:103970000088401C85B200BF681E85B217E005EBC9
:103980008501244A02EB810041684968416000F1E9
:10399000080142688A4202D1416849684160416831
:1039A000CC68201DFFF79EFB2046FFF76AFF05EB62
:1039B0008500184951F8200008B9012000E00020D6
:1039C0000028DCD0002DD7DC18E01D4801464968EE
:1039D00049680246516001464A6808318A4204D16A
:1039E0000146496849680246516015494968CC68F2
:1039F000201DFFF777FB2046FFF743FF104821E02B
:103A0000BC000020AC00002098000020C400002072
:103A1000B4000020D84000208C410020B8000020D5
:103A2000A800002064410020A4000020784100206C
:103A300049444C4500000000E7380008B000002071
:103A40003C410020006808B9012000E00020002867
:103A5000BBD018E093480146496849680246516066
:103A600001464A6808318A4204D1014649684968DA
:103A7000024651608B494968CC68201DFFF732FB34
:103A80002046FFF7FEFE8748006808B9012000E0E5
:103A900000200028DED018E08348014649684968C4
:103AA0000246516001464A6808318A4204D1014603
:103AB00049684968024651607B494968CC68201DC5
:103AC000FFF710FB2046FFF7DCFE7748006808B9D7
:103AD000012000E000200028DED070BD70B5064651
:103AE0000C467248016818313046FFF7E1FA6F481A
:103AF0000068001DFFF7F6FA601C30B96B480168DA
:103B0000091D6948FFF7C6FA05E06948006805190C
:103B10002846FFF72DFD70BD70B50646F068C468F5
:103B200004F11800FFF7DEFA62480068A0B9201D12
:103B3000FFF7D8FA6049E06A0968884202D95E490D
:103B4000E06A0860E16A01EB81015C4A02EB8100F6
:103B5000211DFFF79FFA04E004F118015848FFF710
:103B600099FA5249E06A0968C96A884201D3012575
:103B700000E00025284670BD5249096801604C49A3
:103B800009684160704770B504460D46FFF7ECFACE
:103B90002868401C08B900261FE04A4920680968C7
:103BA000884206D0424960680968884201D80126E7
:103BB00013E03F4960680968081A296888420BD2F7
:103BC00028683B4A61681268511A401A28602046EA
:103BD000FFF7D2FF002600E00126FFF7CEFA3046BD
:103BE00070BD012038490860704730490868704747
:103BF00070B505462C462D49E06A0968C96A8842B5
:103C00002BD22A480068C06AC0F10500A061E16AB1
:103C100001EB8101294A02EB81016069884218D1D8
:103C2000201DFFF75FFA21480068C06AE062224960
:103C3000E06A0968884202D91F49E06A0860E16ABF
:103C400001EB81011D4A02EB8100211DFFF722FAE1
:103C500003E016480068C06AE06270BD70B50546B2
:103C60002C46EDB1616CE06A884219D0201DFFF747
:103C700039FA606CE062E06AC0F10500A0610E49AB
:103C8000E06A0968884202D90B49E06A0860E16A83
:103C900001EB8101094A02EB8100211DFFF7FAF9CE
:103CA00070BD0000504100208C4100209800002091
:103CB000AC000020BC000020B4000020D840002050
:103CC00064410020C8000020C4000020D2B201E0FE
:103CD00000F8012B491EFBD270470022F6E710B511
:103CE00013460A4604461946FFF7F0FF204610BD6A
:103CF00030B505462A460B4612F8010B13F8014B66
:103D000008B1A042F8D01CB1002802D06D1CF1E728
:103D1000284630BD10B5044604E00B7800F8013B9E
:103D200003B1491C521EF8D2204610BD2DE9FE4FAA
:103D3000804681EA0300C00F0C46009021F000414C
:103D400023F00045B8EB0200A94105D240462146C8
:103D500090461C460B46024623F00040104347D0D5
:103D6000270DC7F30A00C3F30A510290401A0190CD
:103D700040286BDAC3F3130040F4801B009892468E
:103D800020B10023D2EB030A63EB0B0B01985946D9
:103D9000C0F14002504600F098F906460D465046E4
:103DA0005946019A00F0B0F910EB08006141002477
:103DB00087EA115284EAE7731A4340D0009A62B34B
:103DC000019A012A4FEA075215DC001B61EB020140
:103DD0004FF0004202EA0752CDE90042001C41F5D3
:103DE000801132462B4600F0AEF903B0BDE8F08FEB
:103DF00040462146F9E7001B61EB0201001C41F53A
:103E0000801300185B412018A2F5001747EB03014F
:103E100040EAD570B6196D4111E06D084FEA3606DB
:103E200045EAC0754FEA0752001B61EB0201001C16
:103E300041F5801149084FEA3000001951413246DE
:103E40002B4603B0BDE8F04F00F070B90098012296
:103E500040000023D0EB020263EBE07300982146A0
:103E60004FEAE074B8EB000061EB0401E9E783F08E
:103E700000435BE781F0004158E72DE9FE4F81EAFE
:103E8000030404F0004421F0004100944FF0000BC3
:103E900023F0004350EA01045ED052EA03045BD0F1
:103EA000C3F30A54C1F30A552C44A4F2F334019429
:103EB000A0FB0254C1F3130141F48011C3F31303B7
:103EC00043F4801301FB024400FB034E840A970A6B
:103ED00044EA815447EA8357A4FB076802958D0A98
:103EE00005FB07854FEA932C04FB0C542705029D24
:103EF0004FEA065847EA1637B5EB08056EEB070C94
:103F0000870E920E47EA811742EA8312A7FB02014D
:103F1000B6EB0B0164EB00042B0D43EA0C335E1887
:103F200044EB1C50DA465146E7FB0201C5F313048B
:103F30004FEA0B3343EA14534FEA0432019C43EA3D
:103F40000603A4F10C040294009CCDE900B400F037
:103F5000FAF803B0BDE8F08F00200146F9E72DE93B
:103F6000F04D81EA030404F0004B21F000451446B3
:103F70004FF0000A23F0004150EA050220D054EA35
:103F800001021DD0C5F30A570246C5F31303C1F35E
:103F90001300C1F30A5640F4801543F48013A7EBD5
:103FA0000608101BD64608F2FD3873EB050002D355
:103FB00008F1010801E092185B41B8F1000F03DA43
:103FC00000200146BDE8F08D00204FF48011064628
:103FD00084460EE0171B73EB050705D3121B63EB3A
:103FE000050306434CEA010C49084FEA30009218D9
:103FF0005B4150EA0107EDD152EA030012D082EA98
:10400000040083EA0501084305D0101BAB4106D22A
:104010000122002306E000224FF0004302E06FF08F
:10402000010253101AEB06004CEB085110EB0A008A
:1040300041EB0B01BDE8F04D00F078B830B50B4610
:10404000014600202022012409E021FA02F59D42C8
:1040500005D303FA02F5491B04FA02F52844151E9C
:10406000A2F10102F1DC30BD2DE9F05F0546002030
:1040700092469B4688460646814640241BE02846D9
:1040800041464746224600F02FF853465A46C01A8A
:10409000914110D311461846224600F016F82D1A09
:1040A00067EB01084F4622460120002100F00DF881
:1040B00017EB00094E41201EA4F10104DFDC484645
:1040C00031462A464346BDE8F09F202A04DB203AC9
:1040D00000FA02F1002070479140C2F1200320FA5B
:1040E00003F3194390407047202A04DB203A21FA59
:1040F00002F00021704721FA02F3D040C2F1200201
:104100009140084319467047202A06DBCB17203A16
:1041100041FA02F043EAE07306E041FA02F3D040CC
:10412000C2F12002914008431946704710B5002B98
:1041300008DA401C41F1000192185B411A4301D199
:1041400020F0010010BD2DE9F04D92469B4611B1C3
:10415000B1FA81F202E0B0FA80F220329046FFF725
:10416000B4FF04460F4640EA0A0041EA0B015346F9
:104170005A46084313D0114653EA010019D0C8F13A
:1041800040025046FFF7B0FF05460E4650465946DE
:104190004246FFF79AFF084305D0012004E020467D
:1041A0003946BDE8F08D0020054346EAE0762C4311
:1041B00037430A986305E40AA0EB08000022FD0AD1
:1041C00044EA47540A3002D500200146E9E70105D8
:1041D00010196941DDE9084500196941BDE8F04D54
:1041E000A4E7C1F30A52C1F3130140F2FF3341F4D3
:1041F00080119A4202DA00200146704740F23343B0
:104200009A42A2F2334202DC5242FFF76DBFFFF73F
:104210005CBF000030B5002904DB4FF00044404291
:1042200064EB0101002B04DB4FF00044524264EBCD
:104230000303994208BF904230BD0000064C074D71
:1042400006E0E06840F0010394E807009847103466
:10425000AC42F6D3FBF74EFFEC4B00080C4C0008C9
:104260000FB4054B10B503A9044A029800F0DEF81C
:1042700010BC5DF814FB00009706000860000020E9
:104280000FB4084B10B504A902AA039800F0CEF8A9
:10429000044602A9002000F060FC204610BC5DF836
:1042A00014FB00005B4B000802E008C8121F08C1A5
:1042B000002AFAD170477047002001E001C1121FA7
:1042C000002AFBD1704700002DE9FF5FDDE90220E5
:1042D000010DDDF838B0024318D044F61050A1F2B9
:1042E000FF3141430D140F98012820D0A5EB0B009E
:1042F000401C5FEA000A4FF00004474EDFF81C91B3
:10430000A046504616D5CAF1000728E00F980124B0
:1043100043A2012808D0002100980F9BC0E900218A
:10432000C0E90243BDE8FF9F6FEA0B01F4E7CBF160
:104330000000DEE7074612E0F80707D022463346C2
:1043400040464946FFF799FD804689462246334656
:1043500010461946FFF791FD04460E467F10002FC8
:10436000EAD1DDE90201BAF1000F42464B4602DA1A
:10437000FFF783FD01E0FFF7F2FD04460E46002241
:10438000284BFFF747FF03D84FF0FF30014607E007
:104390000022254B20463146FFF7C8FCFFF721FFDE
:1043A000102409E0002C0ADB0A220023FFF75CFE40
:1043B000019B30321A55641E50EA0102F2D1641C8E
:1043C000019AC4F1110314440F9A012A03D0012267
:1043D00008430DD10AE0084304D000204FF0110B30
:1043E0000F9080E7A3EB0B056D1E0DE05B4504DD30
:1043F0004FF0000205F1010504E003DA4FF000027E
:10440000A5F10105002AECD000980F99C0E902310E
:10441000C0E9004586E70000000024400000F03FAE
:10442000300000000000F0430000E03F2DE9FF4FA6
:1044300095B09B468946064600250FE2252877D190
:1044400000242746F84A0121059400E0044316F8A9
:10445000013F203B01FA03F01042F7D130782A28BF
:1044600011D06FF02F033078A0F13002092A16D84E
:10447000059A44F0020402EB820203EB420210446C
:10448000761C0590EFE759F8042B0592002A03DA11
:10449000504244F40054059044F00204761C3078F5
:1044A0002E2816D116F8010F44F004042A280DD046
:1044B0006FF02F023078A0F13003092B09D807EBF9
:1044C000870302EB4303C718761CF3E759F8047B14
:1044D000761C30786C280FD006DC4C2817D0682862
:1044E0000DD06A2814D104E0742810D07A280FD196
:1044F0000DE044F400140AE044F4801401E044F4B4
:1045000040147278824202D104F58014761C761C25
:10451000307866280BD013DC582877D009DC0028C7
:1045200075D04528F6D04628F4D047281AD19DE109
:1045300018E0632835D0642879D0652812D195E138
:10454000702873D008DC6728F1D069286FD06E28F6
:104550000DD06F2806D1B5E073282CD0752875D002
:10456000782874D05A46179990476D1C75E1C4F3AA
:104570000250022809D003280DD0D9F800100428D1
:104580000DD00D6009F1040967E1D9F80010EA17B0
:10459000C1E90052F6E7D9F800100D80F2E70D707E
:1045A000F0E719F8041B8DF8001000208DF80100C9
:1045B000EA46012003E059F804AB4FF0FF306107F1
:1045C0004FF0000102D40DE008F101018846B94224
:1045D0000FDA8045F8DB1AF808100029F4D108E05A
:1045E00008F1010188468142FADB1AF80810002917
:1045F000F6D105985B46A0EB080721463846179A86
:1046000000F094FA284400EB080507E04DE029E1AA
:104610000DE01AF8010B5A4617999047B8F10108B6
:10462000F7D25B4621463846179A13E142E00A2248
:104630000092C4F302524FF0000A022A08D059F83F
:1046400004CB032A4FEAEC710AD00DE029E02AE0FE
:1046500009F1070121F00702F2E802C1914609E0E1
:104660000FFA8CFC4FEAEC71042A03D14FFA8CFC50
:104670004FEAEC71002907DA0A460021DCF1000C50
:1046800061EB02012D2202E0220504D52B228DF8D8
:104690000420012203E0E20701D02022F7E7904640
:1046A00059E00A2102E010220DE010214FF0000A2B
:1046B00000910BE010224FF0000A44F00404082798
:1046C000009203E008224FF0000A0092C4F3025265
:1046D000022A05D059F804CB0021032A08D009E0AA
:1046E00009F1070121F00702F2E802C1914605E055
:1046F0001FFA8CFC042A01D10CF0FF0C4FF00008CB
:10470000220728D5702806D0009B83F0100353EAB7
:104710000A0305D00EE040228DF80420012208E0B3
:104720005CEA010206D030228DF804208DF80500E5
:1047300002229046009B83F0080353EA0A030AD141
:104740005CEA010201D1620705D530228DF8042010
:104750004FF001087F1E582804D034A003900EA803
:1047600002900DE036A0F9E753466046009AFFF745
:104770007BFC84460398825C0298401E0290027083
:104780005CEA0100F0D1029806A9081A00F1200A9B
:10479000600702D524F4803400E00127574502DD8C
:1047A000A7EB0A0000E0002000EB0A01009005984A
:1047B0004144401A0590E00306D45B462146179A0F
:1047C000059800F0B3F90544002706E001A85A4611
:1047D000C05D179990476D1C7F1C4745F6DBE003D1
:1047E0000CD55B462146179A059800F09FF90544C1
:1047F00004E030205A46179990476D1C0099481ED6
:1048000000900029F5DC08E0029802995A460078E9
:10481000491C0291179990476D1CBAF10001AAF149
:10482000010AF1DC65E10000092801003031323372
:1048300034353637383961626364656600000000DC
:1048400030313233343536373839414243444546C6
:104850000000000000F058F90544761C307800286C
:104860007FF4ECAD19B02846BDE8F08F620700D4A4
:10487000062709F1070222F0070CFCE80223E146B3
:1048800003F000485FEA080C02D00FF2702C0DE034
:104890005FEA045C02D50FF2682C07E05FEAC47C93
:1048A00002D00FF2602C01E0AFF2700C4FF0FF3835
:1048B00023F00043CDF850C065280CD006DC452815
:1048C00009D046281DD047283DD13DE0662818D0A4
:1048D00067287ED138E00021112F01DB112000E094
:1048E000781CCDE9000106A90EA8FFF7EDFCDDE973
:1048F0000F010E9A03910021009207F1010A049121
:104900004DE04FF000400097CDE9011006A90EA838
:10491000FFF7DAFCDDE90F0203920E9B11990022EA
:10492000DDF80CA00093049211B9791C00EB010A88
:10493000B7EB0A0004D4C0F1FF3007F1010A04907C
:10494000AAEB0700019044E0012F00DA01270021C3
:10495000112F01DD112000E03846CDE9000106A944
:104960000EA8FFF7B1FCDDE90F010E9A03910021BB
:1049700004910092BA4621070CD40399514500DAFC
:104980008A46BAF1010F05DD009AAAF10101515CD6
:10499000302908D0B84202DA10F1040F06DA0121FA
:1049A000CDE9011015E0AAF10101E9E7002805DCD5
:1049B000049901440491AAEB000102E0411C514515
:1049C00000DD8A460499401A401C01904FF00040D7
:1049D0000290200704D40198504501DBCDF80480F3
:1049E00000208DF84F0002980DF14F07B0F1004FF5
:1049F00025D02B200E9002984FF0020800280CDAE8
:104A0000404202902D200E9007E00A210298FFF705
:104A100015FB3031029007F8011DB8F10001A8F133
:104A20000108F2DC02980028EFD1791E0E98087078
:104A3000307800F0200040F0450007F8020D12A881
:104A4000C01B00F107081498007800B1012000EBAA
:104A50000A01019801EBE07105984144401A401E9B
:104A60000590E00306D45B462146179A059800F0AE
:104A70005DF805441498007818B15A461799904784
:104A80006D1CE00324D55B462146179A059800F07B
:104A90004DF805441CE00498002807DBDDE903011C
:104AA000884203DD0098405C179901E01799302097
:104AB0005A469047049805F10105401C049001985E
:104AC000401E019004D12E205A46179990476D1C24
:104AD000BAF10001AAF1010ADDDC05E017F8010BCB
:104AE0005A46179990476D1CB8F10001A8F10108CA
:104AF000F4DC5B462146179A0598ABE62D000000D2
:104B00002B000000200000002DE9F04104460025A4
:104B10001E461746880404D405E039462020B047D5
:104B20006D1C641EF9D52846BDE8F0812DE9F041E1
:104B3000044600251E469046C80301D5302700E0F4
:104B40002027880404D505E041463846B0476D1C4F
:104B5000641EF9D52846BDE8F0810A68531C0B6035
:104B600010707047222B38363133303130313330CA
:104B70003530302200000000223133323132313002
:104B8000383531332200000041542B4349505354EF
:104B90004152543D22544350222C2274696D652E9B
:104BA0006E6973742E676F76222C3133000000001B
:104BB00041542B43495053544152543D2254435085
:104BC000222C2231347A393572363338392E6961E4
:104BD000736B2E696E222C3230383239000000009F
:104BE000CAD5B5BDBBD8B8B4610000000C4C0008F4
:104BF00000000020D4000000A8420008E04C00089B
:104C0000D4000020CC440000B8420008644B0008E7
:104C1000784B0008E04B0008B04B0008884B0008B8
:104C20000000000000000000000000000000000084
:104C3000140000000000000000006466535441525C
:104C4000546466656500000000000000000000007C
:104C500000A24A040000000000000000010203045A
:104C60000607080900000000000000000000000026
:104C7000000000000000000102030401020304061A
:104C800007080902040608000000000000000000F8
:104C900000000000000000000040000000000000D4
:104CA000AAAAAAAA0000000000000000000000005C
:104CB00000000000000000000000000000000000F4
:104CC00000000000000000000000000000000000E4
:104CD000000000000000000000000000FFFFFFFFD8
:04000005080000ED02
:00000001FF
